S02500004763634170706C69636174696F6E5F4D6572696C6E696B5F56657472612E7372656383
S11300000C94A72A0C94C42A0C94C42A0C94C42AD1
S11300100C94C42A0C94C42A0C94C42A0C94C42AA4
S11300200C94C42A0C94C42A0C94C42A0C94C42A94
S11300300C94C42A0C94C42A0C9435340C94C42A09
S11300400C94C42A0C94C42A0C94C42A0C94C42A74
S11300500C94C42A0C94C42A0C94C42A0C94C42A64
S11300600C94C42A0C94C42A0C94C42A0C94C42A54
S11300700C94C42A0C94C42A0C94C42A0C94C42A44
S11300800C94C42A0C94C42A0C94C42A0C94C42A34
S11300900C94C42A0C94C42A0C94C42A0C94C42A24
S11300A00C94C42A0C94C42A0C94C42A0C94C42A14
S11300B00C94C42AE837E937E937E937E937E637F2
S11300C0E937E937E937E937E937E937E937E9372C
S11300D0E937E937E937E937E937E937E437E93721
S11300E0E937E937E937E937E937E937E937E9370C
S11300F0E937E937E937E937E937E937E937E937FC
S1130100DC37E937E937E937E937E937E037E93701
S1130110E937E937E937E937E937E937E237E937E2
S1130120E937E937E937E937E937E937E937E937CB
S1130130E937E937E937E937E937E937E937E937BB
S1130140DA37E937E937E937E937E937DE370000E5
S1130150000000000000000000000000000000009B
S1130160000000000000000000000000000000008B
S1130170000000000000000000000000000000007B
S1130180000000000000000000000000000000006B
S1130190000000000000000000000000000000005B
S11301A0000000000000000000000000000000004B
S11301B0000000000000000000000000000000003B
S11301C0000000000000000000000000000000002B
S11301D03C00003C00003C00003C00003C00003CB3
S11301E000003C00003C00003C00003C00003C00DF
S11301F0003C00003C00003C00003C00003C0000CF
S11302003C00003C00003C00003C00003C000000BE
S113021000000000000000000000003C00003C0062
S1130220003C00003C000000000000000000000052
S113023000000000000000000000000000000000BA
S113024000E0830FE0830FE0830FE0830FE0830F70
S1130250E0830FC00107C00107C00107C00107C048
S11302600107000000000000000000000000000082
S1130270000000000000000000000000000000007A
S1130280000000000000000000000000000000006A
S1130290000000000000000000000000000000005A
S11302A0000000000000000000000000000000004A
S11302B0000000000000000000000000000000003A
S11302C01C1C001C1C000E0E000E0E000E0E000E58
S11302D00E000707000707000707F8FF7FF8FF7FF6
S11302E0F8FF7F80830380830380C301C0C101C002
S11302F0C101FEFF3FFEFF3FFEFF3FE0E000E0E004
S113030000E0E000707000707000707000707000A9
S113031038380038380000000000000000000000F9
S113032000000000000000000000000000000000C9
S11303300000300000300000FC0100FF0F80FF0FC0
S1130340C0370EE03300E03100E03100E03100E07E
S11303503100E03300C03700803F00003F00007EE2
S11303600000FC0000F00300F00700B00F00300FA5
S113037000301F00301E00301E00301E00301E10E2
S1130380300FF0B00FF0FF07F0FF0300FF00003064
S11303900000300000000000000000000000000029
S11303A0000000000000000000000000000000F851
S11303B000E0FC03708E07380E0738070E1C070E8A
S11303C00E070E07070E07078E030EC7019EC7010F
S11303D0FCE300F07000007000003800001C000016
S11303E00E0F00CE3F00E77880E3708073E0C071A9
S11303F0E0E070E0E070E07070E038E0701CE079FC
S11304001CC03F0E000F07000000000000000000A9
S113041000000000000000000000000000000000D8
S113042000000000000000007E0080FF00C0FF010B
S1130430C0E303E0C103E0C103E0C103E0C103E0A2
S1130440E301C0F300C07B00C03F00C01F00F00FF9
S113045000F80FF03C1FF01E3EF01E3CF00F7C70C5
S11304600FF8700FF0790FF0390FE03F1FC01F1E17
S1130470800F3E801FFCE03FF8FF7FF07FFCC01F31
S11304800000000000000000000000000000000068
S1130490000000000000000000003E00003E0000DC
S11304A03E00003E00003E00003E00001C00001C18
S11304B000001C00001C00001C00000000000000E4
S11304C00000000000000000000000000000000028
S11304D00000000000000000000000000000000018
S11304E00000000000000000000000000000000008
S11304F000000000000000000000000000000000F8
S113050000000000000000000000000000000000E7
S11305100000001C00001F00C01F00E00700F001E5
S113052000F800007C00003C00001E00001E0000DB
S11305300F00000F00000F008007008007008007F5
S11305400080070080070080070080070080070004
S1130550800700800700800700000F00000F0000E4
S11305600F00001E00001E00003C00007C0000F88C
S11305700000F00100E00700C01F00001F00001C85
S1130580000000000000000000380000F80000F83F
S11305900300E00700800F00001F00003E00003C45
S11305A00000780000780000F00000F00000F00087
S11305B000E00100E00100E00100E00100E00100D2
S11305C0E00100E00100E00100E00100E00100E0E2
S11305D00100F00000F00000F00000780000780056
S11305E0003C00003E00001F00800F00E00700F800
S11305F00300F800003800000000000000000000C4
S113060000000000000000003C00003C00003C0032
S1130610003C0010180870180EF8811FF8C31FC0A2
S1130620C30300000000420000FF0080E701C0C3D4
S113063003C0C303C0810300810000000000000068
S113064000000000000000000000000000000000A6
S11306500000000000000000000000000000000096
S11306600000000000000000000000000000000086
S11306700000000000000000000000000000000076
S11306800000000000000000000000000000000066
S113069000000000000000003800003800003800AE
S11306A0003800003800003800003800003800002E
S11306B03800FCFF7FFCFF7FFCFF7F003800003820
S11306C0000038000038000038000038000038000E
S11306D000380000380000000000000000000000A6
S11306E00000000000000000000000000000000006
S11306F000000000000000000000000000000000F6
S113070000000000000000000000000000000000E5
S113071000000000000000000000000000000000D5
S113072000000000000000000000000000000000C5
S1130730000000000000000000000000007E000037
S11307407E00007E00007E00007E00007E000078B7
S113075000007800003800003C00001E0000060085
S11307600000000000000000000000000000000085
S11307700000000000000000000000000000000075
S11307800000000000000000000000000000000065
S1130790000000000000000000000000F0FF0FF067
S11307A0FF0FF0FF0F000000000000000000000039
S11307B00000000000000000000000000000000035
S11307C00000000000000000000000000000000025
S11307D00000000000000000000000000000000015
S11307E00000000000000000000000000000000005
S11307F000000000000000000000000000000000F5
S113080000000000000000000000000000000000E4
S113081000000000000000000000000000000000D4
S1130820000000000000000000000000007E000046
S11308307E00007E00007E00007E00007E0000003E
S113084000000000000000000000000000000000A4
S113085000000000000000000000007000003800EC
S1130860003800001C00001C00000E00000E0000F8
S11308700700000700800300800300C00100C001DE
S113088000E00000E000007000007000003800008C
S11308903C00001C00000E00000E000007000007D2
S11308A000800300800300C00100C00100E00000DC
S11308B0E000007000007000003800003800001CE8
S11308C000001C00000E00000000000000000000FA
S11308D000000000000000007E0080FF01C0FF0354
S11308E0E0C307F0810FF0000F78001E78001E7837
S11308F0001E38001C3C003C3C003C3C003C3C00DE
S11309003C3C003C3C003C3C003C3C003C3C003C4F
S11309103C003C38001C78001E78001E78001EF055
S1130920000FF0810FE0C307C0FF0380FF01007ECA
S113093000000000000000000000000000000000B3
S113094000000000000000000000000000000000A3
S11309506000007C00807F00F87F00F87B0018783E
S1130960000078000078000078000078000078002B
S1130970007800007800007800007800007800001B
S11309807800007800007800007800007800007893
S113099000007800007800007800007800F8FF7FFD
S11309A0F8FF7FF8FF7F0000000000000000000057
S11309B00000000000000000000000000000000033
S11309C000000000000000803F00F0FF00F0FF0185
S11309D070E00310C0030080070080070080070058
S11309E0800700800700800700C00300C00300E008
S11309F00100F000007800003C00001E00000F0021
S1130A00800700800300C00300E00100F00000F054
S1130A100000F80000F8FF07F8FF07F8FF070000E0
S1130A2000000000000000000000000000000000C2
S1130A300000000000000000000000000000008032
S1130A407F00E0FF03E0FF07E0C00700800F000025
S1130A500F00000F00000F00000F00800700800748
S1130A6000E00300FF0000FF0000FF0300E00700B8
S1130A70800F00000F00001E00001E00001E00007A
S1130A801E00001E00001E00000F00800FE0C007C3
S1130A90E0FF03E0FF01807F000000000000000091
S1130AA00000000000000000000000000000000042
S1130AB00000000000000000C00300E00300F00399
S1130AC000F00300F80300FC0300DC0300CE030085
S1130AD0CF0300C70380C303C0C303C0C103E0C086
S1130AE003F0C00370C00338C0033CC003FCFF3FE5
S1130AF0FCFF3FFCFF3F00C00300C00300C0030035
S1130B00C00300C00300C00300C00300C003000012
S1130B1000000000000000000000000000000000D1
S1130B20000000000000000000000000000000C001
S1130B30FF07C0FF07C0FF07C00100C00100C001DC
S1130B4000C00100C00100C00100C00100C01F00BE
S1130B50C07F00C0FF0100F00300C0070080070051
S1130B60800700000F00000F00000F00000F0000BE
S1130B700F00000F00800F00800700C00760E00333
S1130B80E0FF01E0FF00803F0000000000000000E3
S1130B900000000000000000000000000000000051
S1130BA00000000000000000F80300FE0F00FF0F2B
S1130BB0800F0EC00300E00100E00100F00000F02F
S1130BC00000F0000078000078F80178FE0378FF58
S1130BD00FF8830FF8011FF8001EF8003EF8003CE0
S1130BE078003C78003CF0003CF0003CF0001CE055
S1130BF0011EE0011FC0870F80FF0700FF0300FCF8
S1130C0000000000000000000000000000000000E0
S1130C10000000000000000000000000000000F0E0
S1130C20FF1FF0FF1FF0FF1FF0FF1F00000E00006A
S1130C300E00000700800700800300C00300C0010D
S1130C4000E00100E00000F0000070000078000007
S1130C503800003C00001C00001E00000E00000FC5
S1130C6000000F00800700800700800700C0030019
S1130C70C00300C0030000000000000000000000EA
S1130C800000000000000000000000000000000060
S1130C900000000000000000FE0180FF07C0FF0FFD
S1130CA0E0830FF0011FF0001EF0001EF0001EF0A4
S1130CB0011EF0010FE08307C0CF0380FF0100FF96
S1130CC00080FF01C0FB07E0E10FF0C01FF0001F30
S1130CD078003E78003E78003C78003C78003CF890
S1130CE0003CF0011EF0830FE0FF0780FF0300FECD
S1130CF000000000000000000000000000000000F0
S1130D0000000000000000000000000000000000DF
S1130D107E0080FF01C0FF07E0C307F0010FF00071
S1130D200F70001E78001E78001E78003C78003C8E
S1130D3078003EF8003EF0003EF0013FE0833FC003
S1130D40FF3D80FF3C003F3C00003C00001E0000D3
S1130D501E00001E00000F00000F008007E0E003EB
S1130D60E0FF01E0FF00803F000000000000000001
S1130D70000000000000000000000000000000006F
S1130D80000000000000000000000000000000005F
S1130D90000000000000000000000000000000004F
S1130DA07E00007E00007E00007E00007E00007E4B
S1130DB0000000000000000000000000000000002F
S1130DC0000000000000000000000000007E0000A1
S1130DD07E00007E00007E00007E00007E00000099
S1130DE000000000000000000000000000000000FF
S1130DF000000000000000000000000000000000EF
S1130E0000000000000000000000000000000000DE
S1130E1000000000000000007E00007E00007E0054
S1130E20007E00007E00007E000000000000000044
S1130E3000000000000000000000000000000000AE
S1130E4000000000007E00007E00007E00007E00A6
S1130E50007E00007E00007800007800003800006A
S1130E603C00001E0000060000000000000000001E
S1130E70000000000000000000000000000000006E
S1130E80000000000000000000000000000000005E
S1130E90002000003800003E00801F00E00700F042
S1130EA00100FC00003F00C00F00F00300FC000044
S1130EB0F00300C00F00003F0000FC0000F0010040
S1130EC0E00700801F00003E000038000020000002
S1130ED0000000000000000000000000000000000E
S1130EE000000000000000000000000000000000FE
S1130EF000000000000000000000000000000000EE
S1130F0000000000000000000000000000000000DD
S1130F10000000000000FCFF3FFCFF3FFCFF3F001F
S1130F200000000000000000000000FCFF3FFCFF88
S1130F303FFCFF3F00000000000000000000000034
S1130F40000000000000000000000000000000009D
S1130F50000000000000000000000000000000008D
S1130F60000000000000000000000000000000007D
S1130F700000000000000000000000000000000469
S1130F8000001C00007C0000F80100E00700800F56
S1130F9000003F0000FC0000F00300C00F00003F11
S1130FA000C00F00F00300FC00003F00800F00E0D1
S1130FB00700F801007C00001C0000040000000091
S1130FC0000000000000000000000000000000001D
S1130FD0000000000000000000000000000000C04D
S1130FE0FF00F8FF03F8FF0F38C00F38001F380068
S1130FF01E38001E00001E00001E00000F008007A7
S113100000C00300F00100F800003C00001E0000D6
S11310101E00000F00000F00000F00000F00000072
S113102000000000000000000000000F00000F009E
S1131030000F00000F00000000000000000000008E
S1131040000000000000000000000000000000009C
S11310500000000000000000FC0100FF03C087073F
S1131060E0010EF0000E70001C38E01F38F01F1C69
S1131070381E1C1C1C1C0E1C0E0E1C0E061C0E07FF
S11310801C0E071E0E071E0E071F0E071F0E871FBE
S11310900E871D1ECE1D1CFE1C1C7CFC3838FC3823
S11310A00000700000E00000C0030380FF0300FEA6
S11310B0000000000000000000000000000000002C
S11310C0000000000000000000000000000000001C
S11310D00000000000000000000000003C00007E52
S11310E000007E00007E0000F70000F70080E701AA
S11310F080E30180E301C0C303C0C103E08107E0D2
S11311008107E08007F0000FF0000FF8FF1FF8FFE1
S11311101FF8FF1F3C003C3C003C3E007C1E007856
S11311201E00780F00F8000000000000000000001E
S113113000000000000000000000000000000000AB
S1131140000000000000000000000000000000009B
S1131150000000F0FF01F0FF07F0FF0FF0801FF028
S1131160001EF0001EF0001EF0001EF0000FF0C084
S113117007F0FF03F0FF00F0FF03F0C00FF0001FC3
S1131180F0001EF0003CF0003CF0003CF0003CF0AD
S1131190003EF0001FF0FF1FF0FF07F0FF0100000A
S11311A0000000000000000000000000000000003B
S11311B0000000000000000000000000000000002B
S11311C0000000000000000000000000F80F00FE16
S11311D07F80FF7FC00F78E00340F00100F800003B
S11311E07800007800003C00003C00003C00003C1B
S11311F000003C00003C00003C0000780000780047
S113120000F80000F00100E00300C01F7080FF7FC1
S113121000FE7F00F80F0000000000000000000046
S113122000000000000000000000000000000000BA
S113123000000000000000000000000000000000AA
S1131240000000F87F00F8FF03F8FF0778C00F786C
S1131250001F78003E78003C78003C7800787800E5
S11312607878007878007878007878007878007852
S113127078007878003878003C78003C78001E7854
S1131280001F78E00FF8FF07F8FF01F87F00000067
S1131290000000000000000000000000000000004A
S11312A0000000000000000000000000000000003A
S11312B00000000000000000000000F0FF1FF0FF2D
S11312C01FF0FF1FF00000F00000F00000F000002D
S11312D0F00000F00000F00000F00000F0FF07F064
S11312E0FF07F0FF07F00000F00000F00000F0003E
S11312F000F00000F00000F00000F00000F0FF3FFC
S1131300F0FF3FF0FF3F000000000000000000007D
S113131000000000000000000000000000000000C9
S113132000000000000000000000000000000000B9
S1131330000000E0FF7FE0FF7FE0FF7FE00100E0CE
S11313400100E00100E00100E00100E00100E00133
S113135000E00100E0FF1FE0FF1FE0FF1FE00100CD
S1131360E00100E00100E00100E00100E00100E034
S11313700100E00100E00100E00100E001000000E4
S11313800000000000000000000000000000000059
S11313900000000000000000000000000000000049
S11313A0000000000000000000000000F80F00FE34
S11313B07F80FF7FC00F78E00340F00100F8000059
S11313C07800007800003C00003C00003C00003C39
S11313D0C07F3CC07F3CC07F3C00787800787800B8
S11313E078F80078F00178E00378C01F7880FF7FF8
S11313F000FE7F00F80F0000000000000000000065
S113140000000000000000000000000000000000D8
S113141000000000000000000000000000000000C8
S113142000000078001E78001E78001E78001E78E8
S1131430001E78001E78001E78001E78001E7800BA
S11314401E78001EF8FF1FF8FF1FF8FF1F78001E0C
S113145078001E78001E78001E78001E78001E7822
S1131460001E78001E78001E78001E78001E000002
S11314700000000000000000000000000000000068
S11314800000000000000000000000000000000058
S11314900000000000000000000000F8FF1FF8FF3B
S11314A01FF8FF1F003C00003C00003C00003C0013
S11314B0003C00003C00003C00003C00003C0000FC
S11314C03C00003C00003C00003C00003C00003CB0
S11314D000003C00003C00003C00003C00F8FF1F02
S11314E0F8FF1FF8FF1F00000000000000000000CC
S11314F000000000000000000000000000000000E8
S113150000000000000000000000000000000000D7
S1131510000000E0FF03E0FF03E0FF0300C003005E
S1131520C00300C00300C00300C00300C00300C028
S11315300300C00300C00300C00300C00300C003D5
S113154000C00300C00300C00300C00300E00300A8
S1131550E00118F001F8FF00F87F00E01F00000030
S11315600000000000000000000000000000000077
S11315700000000000000000000000000000000067
S1131580000000000000000000000078801F788048
S11315900F78C00778E00378E00178F00078F8006D
S11315A0787C00783C00781E00780F00780700F8FB
S11315B00F00781F00783E00783C0078780078F8B7
S11315C00078F00178E00378C00778800F78001F76
S11315D078003F78007E000000000000000000005A
S11315E000000000000000000000000000000000F7
S11315F000000000000000000000000000000000E7
S1131600000000F00000F00000F00000F00000F026
S11316100000F00000F00000F00000F00000F00016
S113162000F00000F00000F00000F00000F0000006
S1131630F00000F00000F00000F00000F00000F006
S11316400000F00000F0FF1FF0FF1FF0FF1F00007C
S11316500000000000000000000000000000000086
S11316600000000000000000000000000000000076
S113167000000000000000000000007C003E7C0030
S11316803EFC003EFC003FFC003FDC013BDC813BB8
S1131690DC813B9C83399CC3399CC3391CC7381CEF
S11316A0E7381CE7381C6E381C7E381C7E381C3C1E
S11316B0381C3C381C3C381C00381C00381C0038D2
S11316C01C00381C0038000000000000000000006E
S11316D00000000000000000000000000000000006
S11316E000000000000000000000000000000000F6
S11316F000000078001C78001CF8001CF8011CF89D
S1131700011CF8031CF8071CB8071CB80F1C381F71
S11317101C381F1C383E1C383C1C387C1C38F81CF8
S113172038F01C38F01D38E01F38E01F38C01F386F
S1131730801F38801F38001F38001E38001E00002C
S11317400000000000000000000000000000000095
S11317500000000000000000000000000000000085
S1131760000000000000000000000000FF00C0FFB7
S113177003E0FF07F0810FF8001F78001E3C003CD7
S11317803C003C1E00781E00781E00781E00781E67
S113179000781E00781E00781E00781E00783C0039
S11317A03C3C003C78001EF8001FF0810FE0FF076E
S11317B0C0FF0300FF000000000000000000000064
S11317C00000000000000000000000000000000015
S11317D00000000000000000000000000000000005
S11317E0000000F0FF01F0FF07F0FF1FF0001FF002
S11317F0003EF0003CF0003CF0003CF0003CF00007
S11318003CF0001EF0001FF0C00FF0FF07F0FF03D4
S1131810F07F00F00000F00000F00000F00000F0A5
S11318200000F00000F00000F00000F000000000F4
S113183000000000000000000000000000000000A4
S11318400000000000000000000000000000000094
S1131850000000000000000000000000FF00C0FFC6
S113186003E0FF07F0810FF8001F78001E3C003CE6
S11318703C003C1E00781E00781E00781E00781E76
S113188000781E00781E00781E00781E00783C0048
S11318903C3C003C78001EF8001FF0810FE0FF077D
S11318A0C0FF0300FF0300C00700801F0000FF000B
S11318B0007E00007800002000000000000000000E
S11318C00000000000000000000000000000000014
S11318D0000000F0FF01F0FF07F0FF0FF0800FF0B1
S11318E0001FF0001EF0001EF0001EF0001EF000AD
S11318F00FF0800FF0E007F0FF03F0FF00F0FF00AF
S1131900F0F001F0F001F0E003F0C007F0800FF018
S1131910800FF0001FF0003EF0007CF0007C00001F
S113192000000000000000000000000000000000B3
S113193000000000000000000000000000000000A3
S1131940000000000000000000000000FF01C0FFD4
S11319500FE0FF0FF0010F7800007800007800001E
S1131960780000F80000F00300F01F00C0FF000042
S1131970FF0700FC0F00E01F00003F00003E0000D6
S11319803C00003C00003C18001EF8801FF8FF0FCC
S1131990F8FF0380FF0000000000000000000000CA
S11319A00000000000000000000000000000000033
S11319B00000000000000000000000000000000023
S11319C0000000FFFFFFFFFFFFFFFFFF003C0000E0
S11319D03C00003C00003C00003C00003C00003C9B
S11319E000003C00003C00003C00003C00003C00C7
S11319F0003C00003C00003C00003C00003C0000B7
S1131A003C00003C00003C00003C00003C000000A6
S1131A1000000000000000000000000000000000C2
S1131A2000000000000000000000000000000000B2
S1131A30000000000000000000000078003C780076
S1131A403C78003C78003C78003C78003C78003CD2
S1131A5078003C78003C78003C78003C78003C7886
S1131A60003C78003C78003C78003C78003C7800EE
S1131A703C78003CF0001EF0001FE0830FE0FF0FF5
S1131A8080FF0300FE0000000000000000000000D2
S1131A900000000000000000000000000000000042
S1131AA00000000000000000000000000000000032
S1131AB00000001F00F01E00781E00783E007C3CF1
S1131AC0003C7C003C78001E78001EF8001EF000EC
S1131AD00FF0010FE08107E08107E08307C0C30333
S1131AE0C0C70380C70180E70180EF0100EF000059
S1131AF0FF00007E00007E00007E00003C0000002D
S1131B0000000000000000000000000000000000D1
S1131B1000000000000000000000000000000000C1
S1131B2000000000000000000000000700E00F00BB
S1131B30E00F00E00E00700E00700E3C700E3C7062
S1131B400E7C701E7E701E7E381C7E381CFE381C77
S1131B50E7381CE7383CE7383CE71C38E31DB8C3DA
S1131B601DB8C31DB8C31DB8C11FF8810FF8810F7C
S1131B70F0810FF0800F0000000000000000000062
S1131B800000000000000000000000000000000051
S1131B900000000000000000000000000000000041
S1131BA00000003E00787C003CF8001CF0000EF0C1
S1131BB0010FE08307C08703C0C70180EF0100FF66
S1131BC000007E00003E00007C0000FE0000FF00DC
S1131BD080F70180E303C0C307E0C107F0800F7002
S1131BE0001F78001E3C003E1E007C0F00F8000021
S1131BF000000000000000000000000000000000E1
S1131C0000000000000000000000000000000000D0
S1131C1000000000000000000000003E00F03C0056
S1131C2078780038F8003CF0001CE0011EE0030F57
S1131C30C00707808707808F0300DF0300FE0100D1
S1131C40FE0000FC000078000078000078000078B6
S1131C500000780000780000780000780000780028
S1131C600078000078000000000000000000000080
S1131C700000000000000000000000000000000060
S1131C800000000000000000000000000000000050
S1131C90000000F8FF3FF8FF3FF8FF3F00003E0060
S1131CA0001F00000F00800700C00300E00100F0E7
S1131CB00100F800007800003C00001E00001F0036
S1131CC0800F00800700C00300E00100F00000F86E
S1131CD000007C0000FCFF3FFCFF3FFCFF3F0000D6
S1131CE000000000000000000000000000000000F0
S1131CF000000000000000000000FE1F00FE1F00A6
S1131D00FE1F000E00000E00000E00000E00000E6C
S1131D1000000E00000E00000E00000E00000E0079
S1131D20000E00000E00000E00000E00000E000069
S1131D300E00000E00000E00000E00000E00000E4B
S1131D4000000E00000E00000E00000E00000E0049
S1131D50000E00000E00000E00000E00000E000039
S1131D60FE1F00FE1F00FE1F000000000000000018
S1131D70000E00001C00001C0000380000380000A9
S1131D80700000700000E00000E00000C00100C02E
S1131D900100800300800300000700000700000E1C
S1131DA000000E00001C00003C0000380000700021
S1131DB000700000E00000E00000C00100C001006D
S1131DC0800300800300000700000700000E0000ED
S1131DD00E00001C00001C000038000038000070D9
S1131DE0000000000000000000F87F00F87F00F809
S1131DF07F00007000007000007000007000007030
S1131E00000070000070000070000070000070009E
S1131E10007000007000007000007000007000008E
S1131E20700000700000700000700000700000700E
S1131E30000070000070000070000070000070006E
S1131E40007000007000007000007000007000F866
S1131E507F00F87F00F87F00000000000000000011
S1131E6000000000000000000800000800001C0042
S1131E70001C00003C00003E00003E000077000013
S1131E80770000E70080E30080C301C0C101C0C146
S1131E9003C08003E08007E0000770000770000EB5
S1131EA038000E38001C38001C1C003800000000EC
S1131EB0000000000000000000000000000000001E
S1131EC0000000000000000000000000000000000E
S1131ED000000000000000000000000000000000FE
S1131EE000000000000000000000000000000000EE
S1131EF000000000000000000000000000000000DE
S1131F0000000000000000000000000000000000CD
S1131F1000000000000000000000000000000000BD
S1131F2000000000000000000000000000000000AD
S1131F30000000000000FFFFFFFFFFFFFFFFFF00A6
S1131F400000000000000000000000000000000F7E
S1131F5000001E00003800007000000000000000B7
S1131F60000000000000000000000000000000006D
S1131F70000000000000000000000000000000005D
S1131F80000000000000000000000000000000004D
S1131F90000000000000000000000000000000003D
S1131FA0000000000000000000000000000000002D
S1131FB0000000000000000000000000000000001D
S1131FC0000000000000000000000000000000000D
S1131FD000000000000000000000000000000000FD
S1131FE00000000000000000FF01E0FF03E0FF0725
S1131FF0E0800F20000F00000F00000F00000F0012
S1132000FE0F80FF0FE0FF0FF0030FF0000F7800CA
S11320100F78000F78000F78800FF8E11FF0FFFEB3
S1132020E07FFE801F780000000000000000000038
S1132030000000000000000000000000000000009C
S11320400078000078000078000078000078000034
S113205078000078000078000078000078000078AC
S1132060F80078FE0378FF0778870FF8010FF8006F
S11320700F78001E78001E78001E78001E78001E5F
S113208078001E78001E78001E78000F78000FF884
S1132090800FF8C307F8FF0378FF01387C000000C5
S11320A0000000000000000000000000000000002C
S11320B0000000000000000000000000000000001C
S11320C0000000000000000000000000000000000C
S11320D00000000000000000FC0700FF1FC0FF1FFD
S11320E0E0071CE00300F00100F000007800007835
S11320F00000780000780000780000780000780084
S113210000F00000F00100F00300E00F1CC0FF1F0E
S113211000FF1F00FC07000000000000000000009A
S113212000000000000000000000000000000000AB
S11321300000001E00001E00001E00001E00001E05
S113214000001E00001E00001E00001E00001E00F5
S11321503F1EC0FF1EE0FF1FF0C11FF0001F7800EC
S11321601E78001E3C001E3C001E3C001E3C001E4F
S11321703C001E3C001E3C001E3C001E78001F78E4
S1132180801FF0E01FF0FF1EE07F1E801F1E000076
S1132190000000000000000000000000000000003B
S11321A0000000000000000000000000000000002B
S11321B0000000000000000000000000000000001B
S11321C00000000000000000FC0080FF03C0FF07C7
S11321D0E0830FE0010FF0000EF0001E78001E787F
S11321E0001EF8FF1FF8FF1FF8FF1F78000078009B
S11321F000F00000F00000F00100E0071CC0FF1F29
S113220080FF1F00FC03000000000000000000002D
S113221000000000000000000000000000000000BA
S11322200000C07F00F0FF00FCFF007CC0003E0007
S1132230001E00001E00001E00001E00001E00F80C
S1132240FF7FF8FF7FF8FF7F001E00001E00001EC6
S113225000001E00001E00001E00001E00001E00E4
S1132260001E00001E00001E00001E00001E0000D4
S11322701E00001E00001E00001E00001E000000C4
S1132280000000000000000000000000000000004A
S1132290000000000000000000000000000000003A
S11322A0000000000000000000000000000000002A
S11322B000000000000000003F1EC0FF1EE0FF1FE2
S11322C0F0C11FF0001F78001E78001E3C001E3C69
S11322D0001E3C001E3C001E3C001E3C001E3C0038
S11322E01E3C001E78001FF8801FF0E11EF0FF1E48
S11322F0E07F1E801F1E00001E00001E00000F0055
S1132300000F70C007F0FF03F0FF01807F000000A2
S113231000F00000F00000F00000F00000F0000009
S1132320F00000F00000F00000F00000F00000F009
S1132330E007F0F80FF0FC1FF00E1EF0073EF0036C
S11323403CF0013CF0003CF0003CF0003CF0003C70
S1132350F0003CF0003CF0003CF0003CF0003CF0AD
S1132360003CF0003CF0003CF0003CF0003C00007D
S11323700000000000000000000000000000000059
S1132380000000000000000000007C00007C000051
S11323907C00007C00007C000000000000000000C5
S11323A000000000000000F87F00F87F00F87F00C4
S11323B000780000780000780000780000780000C1
S11323C07800007800007800007800007800007839
S11323D000007800007800007800007800007800A1
S11323E000780000780000000000000000000000F9
S11323F000000000000000000000000000000000D9
S11324000000F00100F00100F00100F00100F00113
S1132410000000000000000000000000000000F0C8
S1132420FF01F0FF01F0FF0100E00100E00100E026
S11324300100E00100E00100E00100E00100E00132
S113244000E00100E00100E00100E00100E0010023
S1132450E00100E00100E00100E00100E00100E033
S11324600100E00100E00100F00018F800F87F002E
S1132470F83F00E00F00000000F00000F00000F062
S11324800000F00000F00000F00000F00000F00098
S113249000F00000F00000F0801FF0800FF0C00793
S11324A0F0E003F0F001F0F801F0F800F07C00F047
S11324B03E00F01F00F01F00F03E00F07C00F0F83A
S11324C000F0F001F0E003F0C007F0800FF0801F8F
S11324D0F0003FF0007E000000000000000000005B
S11324E000000000000000000000000000000000E8
S11324F000F0FF00F0FF00F0FF0000F00000F0002B
S113250000F00000F00000F00000F00000F0000017
S1132510F00000F00000F00000F00000F00000F017
S11325200000F00000F00000F00000F00000F000F7
S113253000F00000F00000F00000F00000F00000E7
S1132540F00000F00000F00000F00000F0000000D7
S11325500000000000000000000000000000000077
S11325600000000000000000000000000000000067
S11325700000000000000000000000000000000057
S1132580000000000000001C0F0E9C1F1FDC9F3F7A
S1132590FCF8397CF8383C78383C78381C38381CDE
S11325A038381C38381C38381C38381C38381C3833
S11325B0381C38381C38381C38381C38381C383823
S11325C01C38381C383800000000000000000000EF
S11325D000000000000000000000000000000000F7
S11325E000000000000000000000000000000000E7
S11325F0000000000000000000000000000000F0E7
S1132600E007F0F80FF0FC1FF00E1EF0073EF00399
S11326103CF0013CF0003CF0003CF0003CF0003C9D
S1132620F0003CF0003CF0003CF0003CF0003CF0DA
S1132630003CF0003CF0003CF0003CF0003C0000AA
S11326400000000000000000000000000000000086
S11326500000000000000000000000000000000076
S11326600000000000000000000000000000000066
S11326700000000000000000FF00C0FF03E0FF07AF
S1132680F0810FF8001F78001E78001E3C003C3CCF
S1132690003C3C003C3C003C3C003C3C003C3C00DE
S11326A03C78001E78001EF8001FF0810FE0FF0741
S11326B0C0FF0300FF000000000000000000000055
S11326C00000000000000000000000000000000006
S11326D000000000000000000000000000000000F6
S11326E0000000000000000000000000000000F0F6
S11326F0F001F0FC07F0FE0FF00F1FF0031EF001D5
S11327001EF0003CF0003CF0003CF0003CF0003CCB
S1132710F0003CF0003CF0003CF0001EF0001EF025
S1132720011FF0870FF0FF07F0FE03F0F800F00040
S113273000F00000F00000F00000F00000F00000E5
S1132740F00000F0000000000000000000000000A5
S11327500000000000000000000000000000000075
S113276000000000000000003F1CC0FF1EE0FF1F2F
S1132770F0C11FF0001F78001E78001E3C001E3CB4
S1132780001E3C001E3C001E3C001E3C001E3C0083
S11327901E3C001E78001F78801FF0E01EF07F1E94
S11327A0E03F1E801F1E00001E00001E00001E00D1
S11327B0001E00001E00001E00001E00001E00007F
S11327C00000000000000000000000000000000005
S11327D0000000000000000000000000000000C035
S11327E0833FC0E33FC0F33FC07B38C01F38C00FF6
S11327F038C00738C00300C00300C00300C0030092
S1132800C00300C00300C00300C00300C00300C035
S11328100300C00300C00300C00300C003000000A5
S113282000000000000000000000000000000000A4
S11328300000000000000000000000000000000094
S11328400000000000000000000000000000000084
S11328500000000000000000FE03C0FF0FE0FF0FB7
S1132860F0030EF00000F00000F00000F00300E0C0
S11328701F00C0FF0000FF0300F80F00C00F00009E
S11328801F00001E00001E08001F78800FF8FF07BD
S1132890F8FF03C0FF00000000000000000000007B
S11328A00000000000000000000000000000000024
S11328B00000000000000000000000000000000014
S11328C0000000000F00000F00000F00000F00F8D0
S11328D0FF3FF8FF3FF8FF3F000F00000F00000F1D
S11328E000000F00000F00000F00000F00000F0099
S11328F0000F00000F00000F00000F00000F000089
S11329001F00003E0000FE3F00FC3F00F03F0000BF
S113291000000000000000000000000000000000B3
S113292000000000000000000000000000000000A3
S11329300000000000000000000000000000000093
S11329400000000000000078000F78000F78000FEE
S113295078000F78000F78000F78000F78000F7858
S1132960000F78000F78000F78000F78000F7800C0
S11329700F78800F78C00F78E00FF8700FF07F0F9A
S1132980E01F0FC00F0F0000000000000000000057
S11329900000000000000000000000000000000033
S11329A00000000000000000000000000000000023
S11329B00000000000000000000000000000001EF5
S11329C0007C3C003C3C003C7C003E78001EF8004F
S11329D01EF0000FF0000FE08107E08107E083079D
S11329E0C0C303C0C30380C70180E70100EF000038
S11329F0FF0000FF00007E00007E00003C0000009D
S1132A0000000000000000000000000000000000C2
S1132A1000000000000000000000000000000000B2
S1132A2000000000000000000000000000000000A2
S1132A30000000000000000F00E00F00E00F3C6009
S1132A400E7C700E7C701E7E701E7E701E66301CA6
S1132A50E6381CE7381CE7383CC3383CC319B8C314
S1132A601DB8C31DB8811DF8811FF8810FF8800FB0
S1132A70F0800FF0000F00000000000000000000D4
S1132A800000000000000000000000000000000042
S1132A900000000000000000000000000000000032
S1132AA00000000000000000000000000000007CA6
S1132AB0001EF8000EF00107E08107E08303C0C7A1
S1132AC00180EF0180EF00007F00007E00003C00E9
S1132AD0007E0000FF0080F70180F301C0E303E003
S1132AE0C107E08007F0800F78001F3C003E000023
S1132AF000000000000000000000000000000000D2
S1132B0000000000000000000000000000000000C1
S1132B1000000000000000000000000000000000B1
S1132B20000000000000003E00783C00387C003CBF
S1132B3078001C78001EF8000EF0000FF0010FE082
S1132B408107E08307C0C303C0C70380E70180E7B0
S1132B500100EF0000FF00007F00007E00007E0007
S1132B60003C00003C00001C00001E00000E0000A1
S1132B700F00800700FC0300FC0100FC00000000C3
S1132B800000000000000000000000000000000041
S1132B90000000000000000000000000000000F839
S1132BA0FF3FF8FF3FF8FF3F00003E00001F00809A
S1132BB00F00C00700E00300F00100F800007C00F3
S1132BC0003E00001F00800F00C00700E00300F07B
S1132BD00100F80000F8FF3FF8FF3FF8FF3F000056
S1132BE000000000000000000000000000000000E1
S1132BF000000000000000000000C00F00F00F0003
S1132C00F80F007C00003C00003C00003C00003C4D
S1132C1000003C00007C0000780000780000780090
S1132C20007800007800007C00003E00E01F00E017
S1132C300700E01F00003E00003C00007800007820
S1132C4000007800007800007800007C00003C0060
S1132C50003C00003C00003C00003C00007C000004
S1132C60F80F00F00F00C00F00000000000000008B
S1132C700000380000380000380000380000380038
S1132C800038000038000038000038000038000028
S1132C9038000038000038000038000038000038E0
S1132CA00000380000380000380000380000380008
S1132CB000380000380000380000380000380000F8
S1132CC038000038000038000038000038000038B0
S1132CD000003800003800003800003800003800D8
S1132CE0000000000000000000F00300F00F00F0FE
S1132CF01F00003E00003C00003C00003C00003C83
S1132D0000003C00003E00001E00001E00001E00EB
S1132D10001E00001E00003E00007C0000F80700BA
S1132D20E00700F807007C00003E00001E00001EC3
S1132D3000001E00001E00001E00003E00003C00BB
S1132D40003C00003C00003C00003C00003E00F061
S1132D501F00F00F00F0030000000000000000005E
S1132D60000000000000000000000000000000005F
S1132D70000000000000000000000000000000004F
S1132D80000000000000000000000000000000003F
S1132D9000000000F00100F80770FC0F701C3F7089
S1132DA00EFC380EF03F0EE01F00800F0000000004
S1132DB0000000000000000000000000000000000F
S1132DC000000000000000000000000000000000FF
S1132DD000000000000000000000000000000000EF
S1132DE00000000000000000000000E0FF072000D9
S1132DF00420000420000420000420000420000417
S1132E0020000420000420000420000420000420EA
S1132E1000042000042000042000042000042000FA
S1132E2004200004200004200004200004200004E6
S1132E30200004E0FF070000000000000000000084
S1132E40000000000000000000000000000000007E
S1132E50000000000000000000000000000000006E
S1132E60000000000000000000000000000000005E
S1132E70000000000000000000000000000000004E
S1132E8000000000000080038003800380038003AF
S1132E908003800380038003800380038003800316
S1132EA08003000000008003800380030000000012
S1132EB00000000000000000380E380E380E380EF6
S1132EC0380E100410040000000000000000000090
S1132ED000000000000000000000000000000000EE
S1132EE0000000000000000000000000000080312D
S1132EF08031C018C018C018C018FC7FFC7F600C5B
S1132F0060063006FE3FFE3F18031803180318033B
S1132F108C018C0100000000000000000000000390
S1132F200003C01FF03F70233803380338037803CD
S1132F30F003E0038007001F001F003B003B003B41
S1132F40003B181BF81FE00F000300030000000003
S1132F500000000000003CC06660C330C318C31802
S1132F60C30CC30666033C038001C03CC06660C357
S1132F7030C318C318C30CC30666033C000000002A
S1132F8000000000000000000000E003F007380E1D
S1132F90380E380E38067007F001F800FCE0CEE178
S1132FA0C7E387630767077E0F3E1E3CFC7FF0F391
S1132FB0000000000000000000000000C001C0018B
S1132FC0C001C001C00180008000000000000000BA
S1132FD000000000000000000000000000000000ED
S1132FE000000000000000000000000000000000DD
S1132FF00018001E000F8003C001E000E000E000A4
S1133000700070007000700070007000700070003C
S1133010E000E000E000C0018003000F001E001883
S1133020000000000C003C007800E000C0018003B8
S1133030800380030007000700070007000700075C
S113304000070007800380038003C001E0007800CC
S11330503C000C000000000000008003800380039B
S1133060981B7C3E300C4002E007700E381C200494
S1133070000000000000000000000000000000004C
S1133080000000000000000000000000000000003C
S11330900000000000000000800180018001800128
S11330A080018001FE7FFE7F80018001800180011C
S11330B0800180010000000000000000000000000A
S11330C000000000000000000000000000000000FC
S11330D000000000000000000000000000000000EC
S11330E0C003C003C003C003000380038001C00009
S11330F000000000000000000000000000000000CC
S113310000000000000000000000F81FF81F00008D
S113311000000000000000000000000000000000AB
S1133120000000000000000000000000000000009B
S1133130000000000000000000000000000000008B
S11331400000000000000000C003C003C003C0036F
S113315000000000000000000000000000600030DB
S1133160003000180018000C000C000600060003D4
S1133170000380018001C000C000600060003000D6
S11331803000180018000C000C00060000000000BD
S11331900000E003F007380E1C1C1C1C0E380E380F
S11331A00E380E380E380E380E380E380E381C1CF9
S11331B01C1C380EF007E0030000000000000000B3
S11331C00000000000000003E003FC038C03800304
S11331D080038003800380038003800380038003D3
S11331E08003800380038003FC7FFC7F00000000D9
S11331F000000000000000000000F003FC070C0EBB
S1133200001C001C001C001C000E000E00078003A4
S1133210C001E0007000300038001C00FC1FFC1FDF
S11332200000000000000000000000000000F003A7
S1133230F80F081E001C001C001C000C0006E00314
S1133240E007000F001E001C001C001C001E080FDD
S1133250F807F80300000000000000000000000070
S11332600000000E000F800F800FC00EE00E600EF5
S1133270300E180E180E0C0E060EFE7FFE7F000E8A
S1133280000E000E000E000E000000000000000002
S1133290000000000000F03FF03FF03F300030003D
S11332A0300030003000F003F00F001E003C003806
S11332B000380038003C101EF00FF003000000003E
S11332C000000000000000000000801FE03FF0202C
S11332D07000380038001C009C0FDC1F7C3C3C78DC
S11332E01C701C701C70387038387038F01FC007A0
S11332F00000000000000000000000000000F83F93
S1133300F83FF83F00180018000C000C00060002FB
S1133310000380018001C000C000600060007000F4
S11333203000300000000000000000000000000039
S11333300000C007F00F781E381C381C381C780CAD
S1133340F00FE003F00F381F181E1C3C1C381C380B
S11333501C38381CF00FE0070000000000000000DB
S1133360000000000000C007F01F381C38381C386B
S11333701C701C701C703C78787CF077E0730070D3
S113338000380038001C081EF80FF003000000008D
S11333900000000000000000000000000000000029
S11333A000000000C003C003C003C003000000000D
S11333B00000000000000000C003C003C003C003FD
S11333C000000000000000000000000000000000F9
S11333D00000000000000000C003C003C003C003DD
S11333E0000000000000000000000000C003C00353
S11333F0C003C003000380038001C000000000007C
S11334000000000000000000000000000040007008
S1133410003C000FC003F0003C003C00F000C0037F
S1133420000F003C0070004000000000000000009D
S11334300000000000000000000000000000000088
S1133440000000000000FE7FFE7F0000000000007E
S1133450FE7FFE7F0000000000000000000000006E
S11334600000000000000000000000000000000058
S11334700000000002000E003C00F000C003000F3A
S1133480003C003C000FC003F0003C000E000200B2
S11334900000000000000000000000000000F80729
S11334A0FC1F0C3C0C3800380038001C001E000FB8
S11334B080078003C001C001C00100000000C001FA
S11334C0C001C00100000000000000000000000076
S11334D00000C00FE01F703818301C3E0C318E31D4
S11334E0C630C630C638C638C63CC6348EF78CF3F0
S11334F01C003808F00FC0070000000000000000A6
S1133500000000000000000000000000C001C00333
S1133510E003600760077006300E380E381C181C74
S1133520FC3FFC3F0E380E700E7007E000000000F8
S11335300000000000000000000000000000000087
S1133540FC07FC0F1C1E1C1C1C1C1C0EFC07FC078F
S11335501C1E1C3C1C381C381C381C3CFC1FFC0763
S11335600000000000000000000000000000000057
S113357000000000C01FF03F78303C001C000E002B
S11335800E000E000E000E000E001C003C00782001
S1133590F03FC01F00000000000000000000000019
S11335A00000000000000000FC07FC0F1C3C1C385D
S11335B01C781C701C701C701C701C701C701C38D7
S11335C01C381C1EFC0FFC0300000000000000005F
S11335D0000000000000000000000000F83FF83F79
S11335E038003800380038003800F81FF81F380059
S11335F03800380038003800F87FF87F00000000F9
S113360000000000000000000000000000000000B6
S1133610F87FF87F38003800380038003800F83F69
S1133620F83F3800380038003800380038003800D7
S11336300000000000000000000000000000000086
S113364000000000C01FF03F78303C001C000E005A
S11336500E000E000E3F0E3F0E381C383C387838F2
S1133660F03FC01F00000000000000000000000048
S113367000000000000000001C381C381C381C38F6
S11336801C381C381C38FC3FFC3F1C381C381C38C8
S11336901C381C381C381C380000000000000000D6
S11336A0000000000000000000000000FC1FFC1FE0
S11336B0C001C001C001C001C001C001C001C001FE
S11336C0C001C001C001C001FC1FFC1F00000000BC
S11336D000000000000000000000000000000000E6
S11336E0F80FF80F000E000E000E000E000E000E74
S11336F0000E000E000E000E000E0407FC03FC0179
S113370000000000000000000000000000000000B5
S1133710000000001C781C3C1C1E1C0F1C079C0392
S1133720DC01FC00DC01DC039C071C0F1C1E1C3CA0
S11337301C781CF8000000000000000000000000DD
S11337400000000000000000380038003800380095
S113375038003800380038003800380038003800A5
S113376038003800F83FF83F000000000000000077
S11337700000000000000000000000000E381E3CA5
S11337801E3C1E3C36363636363666326633663373
S1133790C631C631C631063006300630000000009E
S11337A00000000000000000000000000000000015
S11337B01C301C303C307C307C30FC30EC31CC3163
S11337C0CC338C370C3F0C3E0C3E0C3C0C380C3884
S11337D000000000000000000000000000000000E5
S11337E000000000E007F00F381C1C381C380E7075
S11337F00E700E700E700E700E701C381C38381C53
S1133800F00FE007000000000000000000000000CE
S11338100000000000000000F81FF83F38783870FE
S1133820387038703878383CF81FF807380038009A
S113383038003800380038000000000000000000A4
S1133840000000000000000000000000E007F00F8E
S1133850381C1C381C380E700E700E700E700E70F2
S11338600E701C381C38381CF00FE007001E00785E
S113387000F0004000000000000000000000000014
S1133880FC07FC0F1C1E1C1C1C1C1C1C1C0EFC0717
S1133890FC039C071C071C0F1C1E1C3C1C381C78BA
S11338A00000000000000000000000000000000014
S11338B000000000E00FF81F3C181C001C003C0036
S11338C0F800F007C01F003E0038003800380C1C18
S11338D0FC1FF007000000000000000000000000D2
S11338E00000000000000000FF7FFF7FC001C00156
S11338F0C001C001C001C001C001C001C001C001BC
S1133900C001C001C001C0010000000000000000AF
S11339100000000000000000000000001C701C708B
S11339201C701C701C701C701C701C701C701C7033
S11339301C701C703C783838F01FE00F0000000049
S11339400000000000000000000000000000000073
S113395007E00E700E701C701C383C383838381C68
S1133960701C700CE00EE00EE007C007C007800377
S11339700000000000000000000000000000000043
S11339800000000003C003C007C08661C663C663AD
S1133990C663C6634E766C366C366C362C3E3C3C45
S11339A03C1C3C1C00000000000000000000000063
S11339B000000000000000001EE03C707838781C15
S11339C0F00EE007C003C003C007E007600F301E1D
S11339D0183C1C380E7807F00000000000000000BE
S11339E000000000000000000000000007E00E706E
S11339F01C301C18381C780E7007E003E003C0016B
S1133A00C001C001C001C001C001C001000000002C
S1133A1000000000000000000000000000000000A2
S1133A20FC3FFC3F0038001C000E000780038001AF
S1133A30C000E000700038001C000E00FE3FFE3F96
S1133A40000000000000000000000000C03FC03F74
S1133A50C001C001C001C001C001C001C001C0015A
S1133A60C001C001C001C001C001C001C001C0014A
S1133A70C001C001C001C001C03FC03F0000000040
S1133A8006000C000C001800180030003000600024
S1133A906000C000C0008001800100030003000634
S1133AA00006000C000C0018001800300030006004
S1133AB000000000FC03FC038003800380038003F8
S1133AC080038003800380038003800380038003DA
S1133AD080038003800380038003800380038003CA
S1133AE0FC03FC030000000000000001000180034F
S1133AF08003C003C006E006600C300C30181818B0
S1133B0018180C300C3006600000000000000000A3
S1133B1000000000000000000000000000000000A1
S1133B200000000000000000000000000000000091
S1133B300000000000000000000000000000000081
S1133B4000000000FFFFFFFF000000000000C001B4
S1133B5080030007000000000000000000000000D7
S1133B600000000000000000000000000000000051
S1133B700000000000000000000000000000000041
S1133B800000000000000000000000000000000031
S1133B90E007F80F181E001C001CE01FF01F381C63
S1133BA01C1C1C1C1C1C3C1EF87BF0780000000034
S1133BB000000000000000001C001C001C001C0091
S1133BC01C001C009C07DC1F7C1C3C381C381C3867
S1133BD01C381C381C381C381C1C3C1EFC0FCC0721
S1133BE000000000000000000000000000000000D1
S1133BF00000000000000000C01FF03F78203800E3
S1133C001C001C001C001C001C003C003800F82098
S1133C10F03FC01F00000000000000000000000092
S1133C20007000700070007000700070C073F07F4E
S1133C30787C38701C701C701C701C701C701C709C
S1133C403C78387CF077E07300000000000000004E
S1133C500000000000000000000000000000000060
S1133C60C007F00F781C38381C381C38FC3FFC3F68
S1133C701C001C0038007820F03FC01F000000002A
S1133C80000000000000000000FF80FFC003C0012E
S1133C90C001C001FC7FFC7FC001C001C001C001A4
S1133CA0C001C001C001C001C001C001C001C00108
S1133CB00000000000000000000000000000000000
S1133CC00000000000000000C073F07F787C3870B2
S1133CD01C701C701C701C701C701C703C78387C30
S1133CE0F077E07300700038183CF81FF00700000C
S1133CF01C001C001C001C001C001C001C0FDC1FF2
S1133D007C3C3C381C381C381C381C381C381C388B
S1133D101C381C381C381C3800000000000000004F
S1133D200000000080038003800300000000000006
S1133D30FC03FC038003800380038003800380036F
S1133D40800380038003800380038003000000005D
S1133D500000000000000000000E000E000E000035
S1133D6000000000F80FF80F000E000E000E000E09
S1133D70000E000E000E000E000E000E000E000ECF
S1133D80000E000E0407FC07F8010000380038009C
S1133D903800380038003800383C381E380E380FE8
S1133DA0B807B803F803B803B807380F380E381E3D
S1133DB0383C3878000000000000000000000000DB
S1133DC0F807F807000700070007000700070007C7
S1133DD000070007000700070007000700070007A7
S1133DE000070007000700070000000000000000B3
S1133DF000000000000000000000000000000000BF
S1133E00CE31EE79FE7F9E779E738E738E738E73A2
S1133E108E738E738E738E738E738E730000000098
S1133E20000000000000000000000000000000008E
S1133E30000000001C0FDC1F7C3C3C381C381C3884
S1133E401C381C381C381C381C381C381C381C38CE
S1133E50000000000000000000000000000000005E
S1133E600000000000000000E003F80F3C1E1C1CD2
S1133E700E380E380E380E380E380E381C1C3C1E08
S1133E80F80FE00300000000000000000000000044
S1133E900000000000000000000000009C07DC1F80
S1133EA07C1C3C381C381C381C381C381C381C380A
S1133EB01C1C3C1EFC0F9C071C001C001C001C004E
S1133EC01C000000000000000000000000000000D2
S1133ED0E039F83F3C3E1C380E380E380E380E38A8
S1133EE00E380E381E3C1C3EF83BF03800380038C3
S1133EF00038003800380000000000000000000016
S1133F0000000000703E703FF031F030700070002F
S1133F10700070007000700070007000700070001D
S1133F20000000000000000000000000000000008D
S1133F300000000000000000E00FF01F78103800BF
S1133F403800F801F007801F003C00380038183CA6
S1133F50F81FF0070000000000000000000000004F
S1133F600000000000000000E000E000FC3FFC3F17
S1133F70E000E000E000E000E000E000E000E0003D
S1133F80E000E001C03F803F0000000000000000AE
S1133F90000000000000000000000000000000001D
S1133FA01C381C381C381C381C381C381C381C386D
S1133FB01C381C381C3C3C3EF83BF0380000000028
S1133FC000000000000000000000000000000000ED
S1133FD0000000001E701C381C383C383818381C8F
S1133FE0701C700CE00EE00EE006C007C0078003F2
S1133FF000000000000000000000000000000000BD
S1134000000000000000000003C087C38743C663AC
S1134010C66346626E666E266C362C363C3C3C3C6F
S11340203C1C181C00000000000000000000000000
S11340300000000000000000000000001E303C18DA
S1134040780C700EF006E003C003C003E007700FA5
S1134050300E381E1C3C0E780000000000000000EA
S1134060000000000000000000000000000000004C
S11340701E701C301C383818381C781C700EF00E5A
S1134080E007E007C003C003C0018001C001C00015
S1134090E0007C003C000000000000000000000084
S11340A000000000FC3FFC3F0038001C000E00072D
S11340B08003C001E000700038001C00FC3FFC3F9E
S11340C0000000000000000000000000001F801F2E
S11340D0C003C001C001C0018003800380038003CA
S11340E0C001F800F800C00180038003800380034E
S11340F0C001C001C001C003801F001F00000000F8
S113410080018001800180018001800180018001A3
S11341108001800180018001800180018001800193
S11341208001800180018001800180018001800183
S1134130000000007C00FC00E001C001C001C001DF
S1134140E000E000E000E000C001800F800FC0014B
S1134150E000E000E000E000C001C001C001E001B7
S1134160FC007C00000000000000000000000000D3
S11341700000000000000000000000000000786063
S1134180FC63C63F061E00000000000000000000A3
S1134190000000000000000000000000000000001B
S11341A000000000F80F08080808080808080808B4
S11341B0080808080808080808080808080808087B
S11341C00808F80F000000000000000000000000D4
S11341D000000000000000000000000000000000DB
S11341E000000000000000000000000000000000CB
S11341F0000000000000000000006000600060009B
S1134200600060006000600060006000600000000A
S113421000006000600000000000000000000000DA
S11342208C018C018C018C018C01000000000000C9
S1134230000000000000000000000000000000007A
S11342400000000000000000000020022002100115
S113425010011001FE0F880088008800FE0744004A
S113426044002200220000000000000000000000C2
S11342704000F001F8034C024C004C007800700040
S1134280C001C001400340034403FC01F8004000A6
S1134290000000000000000000001E083304330288
S11342A03301B300B3005E00A007D00CD00CC80CDF
S11342B0C40CC20C810700000000000000000000D4
S11342C00000F000F80198019801D80070003C004B
S11342D0660CE30CC30C83078707FE07FC0E000083
S11342E0000000000000000060006000600060004A
S11342F0600000000000000000000000000000005A
S113430000000000000000000000000000000000A9
S11343100003C003E0006000300030001800180003
S11343201800180018001800300030006000E00089
S1134330C0030003000000000C003C00700060009B
S1134340C000C000800180018001800180018001E3
S1134350C000C000600070003C000C0000000000C1
S11343600000300030003603CE030000D8009C016A
S113437088000000000000000000000000000000B1
S11343800000000000000000000000000000000029
S11343906000600060006000FE07FE0760006000CF
S11343A060006000600000000000000000000000E9
S11343B000000000000000000000000000000000F9
S11343C00000000000000000700070007000600039
S11343D02000300000000000000000000000000089
S11343E00000000000000000FC03FC0300000000CB
S11343F000000000000000000000000000000000B9
S113440000000000000000000000000000000000A8
S11344100000000000000000700070007000000048
S113442000000000000000000006000300038001FB
S113443080018001C000C0006000600030003000D6
S11344401800180018000C000C0006000000000002
S11344500000F000F8010C030C030606060606062D
S11344600606060606060C030C03F801F00000001D
S11344700000000000000000000060007C006600F6
S11344806000600060006000600060006000600028
S11344906000FE07FE0700000000000000000000AE
S11344A00000F800FC018403000300030003800102
S11344B0C0006000300018000C00FC03FC03000086
S11344C000000000000000000000F800FC030403EA
S11344D000038001F800F8008001000300030003DA
S11344E08403FC01FC000000000000000000000048
S11344F000008001C001E001A001900198018C013D
S11345008401FE07FE078001800180018001000014
S113451000000000000000000000F803F803180089
S1134520180018001800F800F801800300030003C5
S11345308003F801F8000000000000000000000003
S11345400000F000F8011C010C000600E600F60172
S11345508E030603060306038C03FC01F00000002F
S113456000000000000000000000FC07FC0700063B
S1134570000300018001C000400060002000300002
S113458030001800180000000000000000000000C7
S11345900000F000FC018C018C019C01F80070000B
S11345A0EC018603060306038E03FC01F8000000F9
S11345B0000000000000000000007800FC018E01F3
S11345C00603060306038E037C03380300038001FD
S11345D0C401FC007800000000000000000000009E
S11345E00000000000000000700070007000000077
S11345F00000000000000000700070007000000067
S113460000000000000000000000000000000000A6
S11346107000700070000000000000000000000046
S11346207000700070006000200030000000000086
S1134630000000000000000000040007C003E000C8
S113464038000E003800E000C0030007000400003A
S11346500000000000000000000000000000000056
S113466000000000FE07FE0700000000FE07FE0732
S11346700000000000000000000000000000000036
S1134680000000000000000002000E003C0070006A
S1134690C0010007C00170003C000E0002000000D1
S11346A000000000000000000000FE00FE03820382
S11346B0000300038001C0006000300030000000EF
S11346C00000300030000000000000000000000086
S11346D00000F00118030C06C60763063306330610
S11346E033073307F306660E06000C00F0010000E2
S11346F00000000000000000000000006000F00066
S1134700F000D000980198018C030C03FC03FE0711
S113471006060606030C000000000000000000006E
S113472000000000FE00FE0186018601C6007E0036
S1134730FE008601060306030603FE01FE000000D8
S1134740000000000000000000000000E003F80783
S11347501C040C00060006000600060006000C00FF
S11347603C04F807E0030000000000000000000023
S113477000000000FE00FE0186030607060606068A
S113478006060606060606038603FE01FE00000072
S1134790000000000000000000000000FC07FC070F
S11347A00C000C000C00FC03FC030C000C000C00BF
S11347B00C00FC07FC0700000000000000000000E3
S11347C000000000FC07FC070C000C000C00FC03BC
S11347D0FC030C000C000C000C000C000C0000008E
S11347E0000000000000000000000000E003F807E3
S11347F01C040C00060006008607860706060C0645
S11348001C06F807E00300000000000000000000A0
S11348100000000006030603060306030603FE0366
S1134820FE0306030603060306030603060300004D
S1134830000000000000000000000000FE01FE0176
S113484030003000300030003000300030003000E4
S11348503000FE01FE010000000000000000000026
S113486000000000F801F80180018001800180014E
S11348708001800180018001C001FC007C000000F7
S1134880000000000000000000000000060786038E
S1134890C601E600660036003E007600E600C6016A
S11348A086030607060E000000000000000000005A
S11348B0000000000C000C000C000C000C000C00AC
S11348C00C000C000C000C000C00FC07FC070000A2
S11348D000000000000000000000000007070707B8
S11348E08F078B068B06DB065306530673062306D7
S11348F00306030603060000000000000000000099
S1134900000000000E060E061E061E06360676067B
S11349106606E606C606860786070607060700003B
S1134920000000000000000000000000F800FC018E
S11349308E03070703060306030603060306070799
S11349408E03FC01F80000000000000000000000DD
S113495000000000FC01FC030C070C060C060C070D
S1134960FC03FC000C000C000C000C000C0000000C
S1134970000000000000000000000000F800FC013E
S11349808E0307070306030603060306030606034E
S11349908E03FC01F8008003000F000400000000F7
S11349A0000000007E00FE01860186018601C6012A
S11349B0FE007E00E600C60186030607060E000020
S11349C0000000000000000000000000F800FC01EE
S11349D0060106000E003C00F800C00300030003BB
S11349E08603FE01FC00000000000000000000003F
S11349F000000000FF0FFF0F600060006000600017
S1134A006000600060006000600060006000000002
S1134A100000000000000000000000000603060380
S1134A20060306030603060306030603060306033A
S1134A308E03FC01F80000000000000000000000EC
S1134A4000000000070C060606060E060C030C0305
S1134A501C039801B801B000F000F00060000000F1
S1134A60000000000000000000000000030C030C24
S1134A70030C62046204E206F606960696069603A2
S1134A809C039C030C0300000000000000000000D5
S1134A9000000000070E0E060C039801F800F00059
S1134AA06000F000D80198010C030607030E000013
S1134AB0000000000000000000000000070C0606D3
S1134AC00C031C039801F000F0006000600060001B
S1134AD060006000600000000000000000000000B2
S1134AE000000000FE07FE07000600038001C0006E
S1134AF06000300018000C000600FE07FE070000EE
S1134B000000000000000000F003F003300030005B
S1134B103000300030003000300030003000300011
S1134B203000300030003000F003F00300000000DB
S1134B3006000C000C0018001800180030003000AB
S1134B4060006000C000C00080018001800100039B
S1134B500003000600000000FC00FC00C000C000D0
S1134B60C000C000C000C000C000C000C000C00041
S1134B70C000C000C000C000FC00FC000000000039
S1134B80000040004000E000A000B000B0011801A7
S1134B9018030C030C0206060000000000000000CD
S1134BA00000000000000000000000000000000001
S1134BB000000000000000000000000000000000F1
S1134BC0000000000000FF0FFF0F00000000600065
S1134BD0C000000000000000000000000000000011
S1134BE000000000000000000000000000000000C1
S1134BF000000000000000000000000000000000B1
S1134C00F801FC03040300030003F8030C03060388
S1134C108603FE0F7C0E0000000000000000000070
S1134C200600060006000600E600F6019E030E03D9
S1134C3006030603060306038E01FE01F6000000C8
S1134C400000000000000000000000000000000060
S1134C50F001FC031C020E000600060006000E0014
S1134C601C00FC03F0010000000000000000000034
S1134C7000030003000300037803FC038C03060312
S1134C8006030603060306038E03FC033803000031
S1134C900000000000000000000000000000000010
S1134CA0F000FC018C030603FE03FE03060006006D
S1134CB00C02FC03F00100000000000000000000F2
S1134CC0E007F00730003000FE07FE073000300038
S1134CD03000300030003000300030003000000080
S1134CE000000000000000000000000000000000C0
S1134CF07803FC038C03060306030603060306037A
S1134D008E03FC03780300038403FC01F800000015
S1134D100600060006000600E601F6031E0306036D
S1134D200603060306030603060306030603000040
S1134D300000000000000000C000C00000000000EF
S1134D40FC00FC00C000C000C000C000C000C000E7
S1134D50C000C000C000000000000000000000000F
S1134D608001800100000000F801F8018001800149
S1134D708001800180018001800180018001800127
S1134D80C001FC007C0000000C000C000C000C00B6
S1134D900C078C03CC01EC006C007C00EC00CC0113
S1134DA08C030C070C0E0000000000000000000043
S1134DB0FC00FC00C000C000C000C000C000C00077
S1134DC0C000C000C000C000C000C000C00000009F
S1134DD000000000000000000000000000000000CF
S1134DE09B03FF0777063306330633063306330681
S1134DF03306330633060000000000000000000004
S1134E000000000000000000E601F6031E03060394
S1134E10060306030603060306030603060300004F
S1134E20000000000000000000000000000000007E
S1134E30F000FC030C030606060606060606060634
S1134E400C03FC03F0000000000000000000000060
S1134E500000000000000000F600FE018E030603BF
S1134E6006030603060306038E01FE01F600060090
S1134E70060006000600000000000000000000001C
S1134E807803FC038C0306030603060306030603E8
S1134E908E037C03380300030003000300030000B7
S1134EA00000000000000000CC03EC033C020C00F6
S1134EB00C000C000C000C000C000C000C0000009A
S1134EC000000000000000000000000000000000DE
S1134ED0F801FC010C000C003C00F001800300030D
S1134EE00403FC01F80000000000000000000000C2
S1134EF00000000030003000FE07FE0730003000E4
S1134F0030003000300030003000F007E0070000CF
S1134F10000000000000000000000000000000008D
S1134F200603060306030603060306030603060335
S1134F30C6037E033C0300000000000000000000E4
S1134F40000000000000000006060C020C030C0325
S1134F50180198019801B000F000F0006000000012
S1134F60000000000000000000000000000000003D
S1134F70030C630C630CE204F6049604960696078D
S1134F809C030C030C030000000000000000000060
S1134F9000000000000000000E070C039801B80098
S1134FA0F0006000F000D80198010C03060700002F
S1134FB000000000000000000000000000000000ED
S1134FC006060C020C031C0398019801B000F000C3
S1134FD0F00060006000200030003C001C00000075
S1134FE00000000000000000FE03FE030003800137
S1134FF0C0006000300018000C00FE03FE03000037
S11350000000000000000000C003E0036000600036
S113501060006000600060003C003C0060006000D4
S11350206000600060006000E003C0030000000056
S1135030600060006000600060006000600060006C
S1135040600060006000600060006000600060005C
S113505060006000000000003C007C006000600014
S11350606000600060006000C003C0036000600076
S113507060006000600060007C003C0000000000F4
S1135080000000000000000000000000000000001C
S11350903C04FE07C2030000000000000000000002
S11350A0000000000000000000000000FC030402F7
S11350B004020402040204020402040204020402BC
S11350C004020402FC0300000000000000000000D1
S11350D000000000000000000000000C1E1E1E0C5A
S11350E00C000C0C00000066666624000000000042
S11350F000000036367F3636367F363600000C0C1C
S11351003E03031E30301F0C0C0000000023331834
S11351100C0633310000000E1B1B0E5F7B333B6E0D
S11351200000000C0C0C0600000000000000003021
S1135130180C0606060C1830000000060C18303057
S113514030180C060000000000663CFF3C660000BE
S1135150000000000018187E18180000000000006D
S11351600000000000001C1C060000000000007F7E
S113517000000000000000000000000000001C1CF3
S113518000000000406030180C0603010000003EDF
S113519063737B6B6F67633E000000080C0F0C0C9D
S11351A00C0C0C3F0000001E333330180C06333F48
S11351B00000001E3330301C3030331E000000303D
S11351C0383C36337F3030780000003F0303031F40
S11351D03030331E0000001C0603031F3333331E1C
S11351E00000007F63636030180C0C0C0000001E8C
S11351F03333331E3333331E0000001E3333333E48
S113520018180C0E00000000001C1C00001C1C00E0
S113521000000000001C1C00001C1C180C000030C6
S1135220180C0603060C18300000000000007E0075
S11352307E000000000000060C18306030180C06D8
S11352400000001E3330180C0C000C0C0000003E53
S113525063637B7B7B03033E0000000C1E3333330C
S11352603F3333330000003F6666663E6666663F42
S11352700000003C666303030363663C0000001FF8
S1135280366666666666361F0000007F4606263E62
S11352902606467F0000007F6646263E2606060F49
S11352A00000003C666303037363667C0000003304
S11352B03333333F333333330000001E0C0C0C0CF8
S11352C00C0C0C1E00000078303030303333331EA9
S11352D0000000676636361E363666670000000F2B
S11352E0060606064666667F00000063777F7F6BCE
S11352F0636363630000006363676F7F7B7363634F
S11353000000001C366363636363361C0000003FC7
S11353106666663E0606060F0000001C366363637D
S1135320737B3E307800003F6666663E366666678D
S11353300000001E3333030E1833331E0000003FF9
S11353402D0C0C0C0C0C0C1E0000003333333333C7
S11353503333331E000000333333333333331E0C03
S1135360000000636363636B6B3636360000003302
S113537033331E0C1E333333000000333333331EF8
S11353800C0C0C1E0000007F7319180C0646637F7A
S11353900000003C0C0C0C0C0C0C0C3C000000003D
S11353A00103060C183060400000003C30303030FF
S11353B03030303C0000081C366300000000000060
S11353C0000000000000000000000000FF000C0CC2
S11353D018000000000000000000000000001E3063
S11353E03E33336E0000000706063E666666663B83
S11353F00000000000001E330303331E00000038C9
S113540030303E333333336E0000000000001E336F
S11354103F03331E0000001C3606061F0606060F57
S11354200000000000006E3333333E30331E0007AB
S11354300606366E666666670000001818001E18B9
S11354401818187E0000003030003C303030303303
S1135450331E0007060666361E3666670000001E09
S1135460181818181818187E0000000000003F6B68
S11354706B6B6B630000000000001F333333333366
S11354800000000000001E333333331E0000000010
S113549000003B666666663E060F000000006E3341
S11354A03333333E30780000000037766E06060F43
S11354B00000000000001E330618331E0000000028
S11354C004063F060606361C0000000000003333C5
S11354D03333336E000000000000333333331E0CCB
S11354E000000000000063636B6B363600000000B0
S11354F0000063361C1C3663000000000000666672
S113550066663C30180F000000003F311806233F48
S1135510000000380C0C0603060C0C3800000018C0
S11355201818180018181818000000070C0C183068
S1135530180C0C07000000CE5B7300000000000094
S11355400000000000081C3663637F000000112483
S11355501FBECFEFD8E0DEBFCDBF11E0A0E0B1E0C9
S1135560E2EFFEE702C005900D92A43AB107D9F725
S113557022E0A4EAB1E001C01D92A430B207E1F731
S11355800E9426340C94773F0C9400008EE08093A4
S11355907E0088B1817F88B987B1817F87B980E433
S11355A080937C00EAE7F0E08081876880838081D3
S11355B08F7D80830895ECE7F0E09081907F908365
S11355C08230B1F028F4882341F0813059F00895F5
S11355D08330A1F08430C1F00895ECE7F0E08081DD
S11355E080830895ECE7F0E08081816080830895F2
S11355F0ECE7F0E08081826080830895ECE7F0E0DE
S11356008081836080830895ECE7F0E0808184608A
S113561080830895EAE7F0E080818064808380815C
S113562086FDFDCF809178009091790008950E94C5
S1135630DB2A85E38A95F1F700000E940A2B08957E
S1135640823029F0833059F08130C1F410C082E0F7
S11356500E94172B9093B0018093AF010FC083E099
S11356600E94172B9093B0018093AF0107C081E093
S11356700E94172B9093B0018093AF018091AF01EA
S11356809091B00108958BB18C638BB98AB1837CFE
S11356908AB9089599B1969596959F708091A401C1
S11356A0292F209528238095892320FF03C031E0EA
S11356B03093B10121FF03C032E03093B10122FFE6
S11356C003C033E03093B10123FF03C024E02093EF
S11356D0B10180FF03C021E02093B20181FF03C028
S11356E022E02093B20182FF03C023E02093B201A1
S11356F0887019F084E08093B2019093A401089516
S11357008091B1011092B10108950F931F9300E0AD
S113571010E020EA30E04CE251E06CE870E082E214
S113572091E00E94C43420EA30E048E151E06CE8A2
S113573070E08EE091E00E94C43420EA30E044E05E
S113574051E06CE870E08AEF90E00E94C43420EAF3
S113575030E040EF50E06CE870E086EE90E00E94AC
S1135760C43420EA30E04CED50E06CE870E082EDA7
S113577090E00E94C43420EA30E048EC50E06CE849
S113578070E08EEB90E00E94C43420EA30E044EBF9
S113579050E06CE870E08AEA90E00E94C43420EAA9
S11357A030E040EA50E06CE870E086E990E00E9466
S11357B0C4341F910F9108950F931F9300E010E0DC
S11357C02EEB30E04CE251E06AEA70E082E291E0D4
S11357D00E94C4342EEB30E048E151E06AEA70E004
S11357E08EE091E00E94C4342EEB30E044E051E0BE
S11357F06AEA70E08AEF90E00E94C4342EEB30E055
S113580040EF50E06AEA70E086EE90E00E94C43413
S11358102EEB30E04CED50E06AEA70E082ED90E06F
S11358200E94C4342EEB30E048EC50E06AEA70E0A9
S11358308EEB90E00E94C4342EEB30E044EB50E059
S11358406AEA70E08AEA90E00E94C4342EEB30E009
S113585040EA50E06AEA70E086E990E00E94C434CD
S11358601F910F9108950F931F9300E010E020EA19
S113587030E04CE251E06CE870E082E291E00E949A
S1135880C43420EA30E048E151E06CE870E08EE096
S113589091E00E94C43420EA30E044E051E06CE836
S11358A070E08AEF90E00E94C43420EA30E040EFD8
S11358B050E06CE870E086EE90E00E94C43420EA88
S11358C030E04CED50E06CE870E082ED90E00E9436
S11358D0C43420EA30E048EC50E06CE870E08EEB31
S11358E090E00E94C43420EA30E044EB50E06CE8DD
S11358F070E08AEA90E00E94C43420EA30E040EA92
S113590050E06CE870E086E990E00E94C4342EEB2D
S113591030E04CE251E06AEA70E082E291E00E94F9
S1135920C4342EEB30E048E151E06AEA70E08EE0E6
S113593091E00E94C4342EEB30E044E051E06AEA86
S113594070E08AEF90E00E94C4342EEB30E040EF28
S113595050E06AEA70E086EE90E00E94C4342EEBD8
S113596030E04CED50E06AEA70E082ED90E00E9495
S1135970C4342EEB30E048EC50E06AEA70E08EEB81
S113598090E00E94C4342EEB30E044EB50E06AEA2D
S113599070E08AEA90E00E94C4342EEB30E040EAE2
S11359A050E06AEA70E086E990E00E94C4342CED8D
S11359B030E04CE251E068EC70E082E291E00E9459
S11359C0C4342CED30E048E151E068EC70E08EE046
S11359D091E00E94C4342CED30E044E051E068ECE6
S11359E070E08AEF90E00E94C4342CED30E040EF88
S11359F050E068EC70E086EE90E00E94C4342CED38
S1135A0030E04CED50E068EC70E082ED90E00E94F4
S1135A10C4342CED30E048EC50E068EC70E08EEBE0
S1135A2090E00E94C4342CED30E044EB50E068EC8C
S1135A3070E08AEA90E00E94C4342CED30E040EA41
S1135A4050E068EC70E086E990E00E94C4341F9155
S1135A500F910895CF93DF9300D0CDB7DEB789833C
S1135A601A82CE0101960E948F3B80E090E00F9055
S1135A700F90DF91CF910895239A24982C98259A1A
S1135A80229A209A579A80E58CBD81E08DBD0895B5
S1135A908EBD0DB407FEFDCF8EB5089528982A98C3
S1135AA00E94482D2A9A0895289A2A980E94482DDF
S1135AB02A9A0895CF93C82F86E30E944E2D8C2FE7
S1135AC083708093B3018130B1F028F0823019F1F2
S1135AD0833089F13FC088E40E94542D80EF90E028
S1135AE0909311018093100180E491E090930F0151
S1135AF080930E012FC088E20E94542D80E491E02F
S1135B00909311018093100180EF90E090930F0126
S1135B1080930E011FC088E80E94542D80EF90E00E
S1135B20909311018093100180E491E090930F0110
S1135B3080930E010FC088EE0E94542D80E491E002
S1135B40909311018093100180EF90E090930F01E6
S1135B5080930E01CF9108955F980E943C2D569A30
S1135B605F9A8FE19EE40197F1F700C000005F980F
S1135B709FEF29EF80E0915020408040E1F700C082
S1135B8000005F9A9FEF22E587E09150204080401B
S1135B90E1F700C0000083E00E945A2D8AE30E94CE
S1135BA04E2D85E50E94542D81E10E944E2D9FEFDC
S1135BB02BED85E0915020408040E1F700C00000CB
S1135BC089E20E944E2D5E980895CF92DF92EF9263
S1135BD0FF920F931F93CF93DF93D82EC92E162FC6
S1135BE0072FF42EE52EC22FD32F8AE20E944E2DCA
S1135BF08C2D0E94542D8D2D0E94542D8E2D0E948B
S1135C00542D8F2D0E94542D8BE20E944E2D802FF7
S1135C100E94542D812F0E94542D8D2F0E94542DAB
S1135C208C2F0E94542D8CE20E944E2DDF91CF9137
S1135C301F910F91FF90EF90DF90CF9008950E94F5
S1135C40E52D0895CF93C82F289A2A98892F0E946A
S1135C50482D8C2F0E94482D2A9ACF9108950E9496
S1135C60222E0895CF93DF9399231CF120911001E4
S1135C703091110182179307E0F47723D4F0209137
S1135C800E0130910F016217730798F4D52FC42FBA
S1135C909B012F5F3F4FAC014F5F5F4F0E94E52D8B
S1135CA0289A2A988D2F0E94482D8C2F0E94482DC7
S1135CB02A9ADF91CF9108950E94322E0895CF92AF
S1135CC0DF92EF92FF920F931F93CF93DF936A01BA
S1135CD0790120911001309111018217930708F086
